:020000040800F2
:10000000400700205502000839170008FD0A0008C3
:100010003517000823060008CF2B00080000000059
:10002000000000000000000000000000670200085F
:1000300027060008000000006B020008F5240008F5
:100040006F0200086F0200086F020008E91D000837
:100050006F0200086F0200086F0200086F020008BC
:100060006F0200086F0200086F0200086F020008AC
:100070006F0200086F0200086F0200086F0200089C
:100080006F0200086F0200086F0200086F0200088C
:100090006F0200086F0200086F0200086F0200087C
:1000A0006F0200086F0200086F0200086F0200086C
:1000B000752500086F0200086F0200086F02000833
:1000C0006F0200086F0200086F0200086F0200084C
:1000D0006F0200086F0200086F0200086F0200083C
:1000E0006F0200087D1900086F0200086F02000807
:1000F0006F0200086F0200086F0200086F0200081C
:100100006F0200086F0200086F0200086F0200080B
:100110006F0200086F0200086F0200086F020008FB
:100120006F0200086F0200086F0200086F020008EB
:100130006F0200086F0200086F0200086F020008DB
:100140006F0200086F0200086F0200086F020008CB
:100150006F0200086F0200086F0200086F020008BB
:100160006F0200086F0200086F0200086F020008AB
:100170006F0200086F0200086F0200086F0200089B
:100180006F0200086F0200086F0200086F0200088B
:100190006F0200086F0200086F0200086F0200087B
:1001A0006F0200086F0200086F02000800F002F8FA
:1001B00000F041F80AA090E8000C82448344AAF1C0
:1001C0000107DA4501D100F036F8AFF2090EBAE8BE
:1001D0000F0013F0010F18BFFB1A43F0010318477B
:1001E0000855000028550000103A24BF78C878C18F
:1001F000FAD8520724BF30C830C144BF04680C602D
:10020000704700000023002400250026103A28BF74
:1002100078C1FBD8520728BF30C148BF0B60704778
:10022000642900F07380002070471FB502F058FD6C
:100230001FBD10B510BD00F0BAF91146FFF7F5FF6C
:1002400002F018FD00F0D8F903B4FFF7F2FF03BC89
:1002500000F0E0F90948804709480047FEE7FEE75B
:10026000FEE7FEE7FEE7FEE7FEE7FEE7FEE7FEE766
:1002700004480549054A064B704700000D25000853
:10028000AD0100084001002040070020400300208D
:10029000400300200FB41CB5074B06AA7B446946F7
:1002A0000090059800F06BF90020694600F07AF99B
:1002B0001CBC5DF814FB00000503000070B504468B
:1002C00085690068C10601D5302600E02026C007F8
:1002D00007D070BDD4E9012130469047206A401C08
:1002E00020626D1EF6D570BD70B504468569007834
:1002F000C00707D170BDD4E9012120209047206AB2
:10030000401C20626D1EF6D570BD00002DE9F04145
:100310000646002410687529314616A510D0AFF3A3
:100320000080002802DA404213A507E031688A07FE
:1003300001D512A502E0490704D511A5012401E069
:10034000AFF3008000210A2206F1240709E0B0FB88
:10035000F2FCB0FBF2F302FB1C003030785418467C
:10036000491C0028F3D123462A463046BDE8F04117
:1003700000F0A7B8000000002D0000002B000000D6
:10038000200000002DE9F05F894604464FF0000A86
:10039000DFF824B1FB44C0F820A02046E16888477C
:1003A00000287DD0252806D0D4E901219047206A75
:1003B000401C2062F1E700255F462046E16888473F
:1003C0002028064607DB312E05D2B81910F8200C7C
:1003D00008B10543F1E7A80701D525F00405C4F8E5
:1003E0001CA00027C4F818A02A2E09D0304602F01D
:1003F000F0FB38B304EB8708303EC8F8186019E00A
:1004000059F8041B204604EB87029161E168884794
:10041000012F064618D1E069002820DA25F02005D2
:100420001DE0D8F8180000EB800006EB40003038E3
:10043000C8F818002046E1688847064602F0C9FB64
:100440000028EED1012F0AD02E2E08D12046E168D7
:1004500088477F1C0646022F45F02005C4DBA069B3
:10046000002803DA404245F00105A061E80701D009
:1004700025F01005A6B1A6F14100192802D82036B2
:1004800045F400654A463146204625604D46FFF753
:10049000C7FE60B1012807D0ED1D25F0070000E080
:1004A00007E000F1080978E705F1040975E730462F
:1004B0007AE7206ABDE8F09F3E530000704770471E
:1004C00070472DE9F0470D4699469246044600F1E3
:1004D00024080168880604D5E06921F01001216034
:1004E00000E00120A84201DD471B00E00027A169D0
:1004F0007A1902EB0900081AA0612078C00602D41C
:100500002046FFF7DBFE002608E0D4E901211AF8B7
:1005100006009047206A401C761C20624E45F4DBA2
:100520002078C0060AD52046FFF7C8FE06E0D4E9C9
:10053000012130209047206A401C2062381EA7F11C
:100540000107F4DC07E0D4E9012118F80500904721
:10055000206A401C2062281EA5F10105F3DC20461C
:10056000FFF7C2FE2078000602D50220BDE8F08722
:100570000120FBE701694A1C02610878704700B559
:100580008FB0CDE901310021059105497944CDE9CC
:10059000031011466846FFF7F5FE0FB000BD0000DE
:1005A000E5FFFFFF0A6802F8010B0A607047754615
:1005B00000F02CF8AE4605006946534620F00700CF
:1005C000854618B020B5FFF753FEBDE820404FF038
:1005D00000064FF000074FF000084FF0000B21F02D
:1005E0000701AC46ACE8C009ACE8C009ACE8C009FA
:1005F000ACE8C0098D46704710B50446AFF30080E3
:100600002046BDE81040FFF71FBE000000487047BD
:10061000E000002001491820ABBEFEE726000200E2
:10062000704700BFFEE7704710B5A0B02548C079FD
:1006300000902448037A407A00F5FA6222A111A8BA
:10064000FFF728FE00F010FCC0888004040C11A9FC
:10065000204600F073FB20A111A8FFF71BFE00F05D
:1006600003FCC08800EB400084B211A9204600F0D2
:1006700065FB1DA102A8FFF70DFE00F0F5FBC08889
:1006800000EB40004004040C02A9204600F056FB99
:100690000C4800780B490979CDE9001009484379E5
:1006A000827916A102A8FFF7F5FD00F0DDFBC088F6
:1006B000C0EBC00084B202A9204600F03FFB20B08E
:1006C00010BD0000AC00002020253034642F253000
:1006D00032642F2530326400596561722F4D6F6E80
:1006E00074682F4461793A005765656B2F486F75C0
:1006F000722F4D696E2F5365633A200020253032EA
:10070000642C20253032643A253032643A25303268
:100710006400000010B500F0ADFB00F0F9FB012013
:1007200000F082FE002000F001FE4FF6FF7000F0A6
:10073000ABFA002000F016FE012000F0F7FDC82003
:1007400000F010FE4FF6FF7000F09EFA1F2000F040
:10075000E1FD4FF6FF7000F0FFFD194800F0E0FDED
:100760001F2000F0D7FD4FF6FF7000F0F5FD00F000
:100770007BFBC088C0EBC00000EB400084B211A13D
:10078000204600F0DBFA00F06FFBC08816214843DA
:1007900084B20FA1204600F0D1FA154800F0C0FD48
:1007A00000F062FB002413A1204600F0C7FA4FF6C8
:1007B000FF7000F0AFFD1F2000F0CEFD10BD000067
:1007C0001C00002043616C656E64617200000000D3
:1007D0002020202020202020202020202020202019
:1007E0002020202020202020202020202020200029
:1007F000140000202020202043616C656E6461722B
:100800002020202020200000002123498279002A76
:100810003AD00A46126803689A430B461A600A1DCA
:10082000126803689A430B1D1A60027911440A6822
:1008300003681A430A60184A0832126803689A4328
:10084000154B08331A601A1D126803689A43124B3D
:100850000C331A604279102A0ED11A1F12680368ED
:100860001A430D4B08331A601A1D126803681A43A5
:10087000094B0C331A600DE00749427911440A68AC
:1008800003681A430A6005E0027911440A680368A4
:100890009A430A6070470000003C014010B50246D0
:1008A00000200023102A03D14FF02044636E0FE094
:1008B000B2F5807F02D10A4C236809E0B2F5805F6F
:1008C00003D1074C2034236802E0054CD43423685C
:1008D00003EA01048C4201D0002000E0012010BD99
:1008E000840000A00021D0E900231A4383685B1E26
:1008F00042EA4312C36842EA4321014A1160704749
:10090000500100A070B50021002200230024D0E98E
:1009100001563543C6683543066935434669354354
:1009200086693543C6693543066A3543466A45EAF2
:100930000601056835B90568AD00A5F1C045C5F8E3
:1009400040110DE0D0E907563543466A45EA0603F3
:10095000294D2B600568AD00A5F1C045C5F84011D3
:10096000056835BB856A2D686D1E866A7668761EB9
:1009700045EA0616856AAD686D1E46EA0526856A53
:10098000ED686D1E46EA0536856A2D8A6D1E46EABB
:100990000546856AAD8A6D1E46EA0556856A2D7E36
:1009A0006D1E46EA0562144D0835066845F8262096
:1009B00020E0856A2D686D1E866A7668761E45EA97
:1009C0000616856AAD686D1E46EA0526856A2D8A7B
:1009D0006D1E46EA0542856AED686D1E2E03856A26
:1009E000AD8A6D1E46EA0554034D08352C60066835
:1009F00045F8262070BD0000400100A004490968A8
:100A000041EA40014FF02042C2F854117047000003
:100A1000540100A0F0B50A4600210023002400BFC5
:100A20003DE0012505FA01F3156805EA03049C423F
:100A300034D105684F000326BE40B54305601579E3
:100A40004E00B5400668354305601579012D02D08A
:100A50001579022D16D185684F000326BE40B54397
:100A6000856055794E00B540866835438560456898
:100A700001268E40B5434560456896798E40B6B2F2
:100A800035434560C5684F000326BE40B543C56089
:100A9000D5794E00B540C6683543C560491C10295C
:100AA000BFD3F0BDF0B5002300244D07ED0E02FAD0
:100AB00005F3CE1000F1200555F826504E07F70E2D
:100AC0000F26BE40B543CF1000F1200646F8275050
:100AD000CE1000F1200555F8265045EA0304CE104B
:100AE00000F1200545F82640F0BD418370470183A1
:100AF00070470AB1018300E04183704700BFFEE701
:100B00001CB501216F2000F05BFE0E22032150482E
:100B1000FFF7C8FF0E2204214D48FFF7C3FF0E2246
:100B200006214B48FFF7BEFF0E220B214848FFF776
:100B3000B9FF0E220C214648FFF7B4FF41F65800DA
:100B4000009002208DF805008DF8040000208DF83B
:100B500006008DF8070069463D48FFF75BFF092254
:100B600000213C48FFF79EFF092201213948FFF789
:100B700099FF0E2208213748FFF794FF0E22092122
:100B80003448FFF78FFF0E220A213248FFF78AFF11
:100B90000E220B212F48FFF785FF40F603700090CF
:100BA00069462C48FFF736FF0E2206212A48FFF738
:100BB00079FF0E2207212848FFF774FF0E220A2131
:100BC0002548FFF76FFF4FF4986000906946224870
:100BD000FFF720FF0E2203212048FFF763FF0E22BC
:100BE00006211E48FFF75EFF4820009069461B481B
:100BF000FFF710FF0E220A211948FFF753FF4FF4A9
:100C00008060009069461648FFF704FF0E22062117
:100C10001448FFF747FF0E2207211248FFF742FF53
:100C200009220A210F48FFF73DFF0E220B210D4834
:100C3000FFF738FF09220C210A48FFF733FF4FF472
:100C4000E650009069460748FFF7E4FE1CBD00002F
:100C5000000002400004024000080240000C024074
:100C6000001402400018024010B5044624B90421C3
:100C70000448FFF73AFF03E004210248FFF737FF7B
:100C800010BD0000000802400146002000BF04E043
:100C9000044B1B6823F81010401CB0F5A02FF7D3AD
:100CA000704700003C0000201CB501210C2000F022
:100CB00087FD0420009002208DF8050001208DF8AA
:100CC000040000208DF806008DF8070069460848EA
:100CD000FFF7A0FE4FF40050009069460548FFF76B
:100CE00099FE01220421024800F006F81CBD000014
:100CF00000080240000C024070B504460D4616463E
:100D0000324629462046FFF7F4FE70BD70B5054611
:100D10000E461446A4F12000C4B2074800680168DA
:100D200005480068C088604301EB40023146284610
:100D300000F02EF870BD00003400002070B50646AB
:100D40000C4600250AE0227829463046FFF7DEFFF0
:100D50000E4800688088284485B2641CF02D14DA9F
:100D60000A4800688088284480B208490968898850
:100D7000884201DB012000E00020217809B1012137
:100D800000E0002108400028DDD170BD34000020C3
:100D90002DE9F04104460D46134600BF002200BF76
:100DA0000020C4EB04177E01284400214DE00022FE
:100DB0003FE0294F3F68BF884FF00C0C97FBFCF7D2
:100DC0004FEAC70C802707FA0CF7174133F811C018
:100DD00007EA0C0727B9204F3F68BF880C2F0DDDAD
:100DE00033F811704FF0010C0CFA02FC07EA0C0703
:100DF0008FB9194F3F68BF880C2F0CDD174F3F8804
:100E0000DFF85CC0DCF800C04FF0020808FB00CC43
:100E10002CF806700BE0134F3F88DFF844C0DCF875
:100E200000C04FF0020808FB00CC2CF80670401CF4
:100E3000521C094F3F68BF889742BAD8064F3F6897
:100E4000BF88C7F1F0073844491C034F3F68FF884B
:100E50008F42ACD8BDE8F081340000203A00002079
:100E60003C00002038000020014800687047000066
:100E70003400002000B58FB0FFF716FF0020FFF709
:100E8000F3FE0120FFF7F0FE00F0DAF900F092F82F
:100E90000121880600F0D4FC0121C80500F090FC77
:100EA000FFF72EFE01F056F900200090019002900D
:100EB00003900C900D900E9004220721C02000F0AA
:100EC0002DFD4FF4003000F017FD012000F020FD53
:100ED00000BF3D2000F0D4FC0028FAD00920049087
:100EE000012005901D2006900320079040F20D1070
:100EF000089040F24310099040F217100A9040F217
:100F000047100B90684600F0B3FA0FB000BD000028
:100F100000B591B01E20019040F20D100290042007
:100F2000039040F24310049002200590FF200690A9
:100F300000200790089009900A904FF480600B9071
:100F400005200C9040F2E3100E90C01E0F904FF45D
:100F5000A07010904FF050400D9001A9124800F081
:100F600058FB12480D904FF4C0600B9007200C9076
:100F700001A90D48803000F04CFB012000F0D4FBAB
:100F80000121094800F03AFB01210748803000F0B8
:100F900035FB012000F0C8FB054800F0C1F9012035
:100FA00000F054FA11B000BD84680140000005D083
:100FB0001400002010B5CA2000F0ECF9C32000F0A6
:100FC0000FFA082000F00CFA502000F009FACF20A8
:100FD00000F0E0F9002000F003FAC12000F000FA70
:100FE000302000F0FDF9ED2000F0D4F9642000F08D
:100FF000F7F9032000F0F4F9122000F0F1F9812054
:1010000000F0EEF9E82000F0C5F9852000F0E8F9DD
:10101000002000F0E5F9782000F0E2F9CB2000F0A4
:10102000B9F9392000F0DCF92C2000F0D9F90020C2
:1010300000F0D6F9342000F0D3F9022000F0D0F906
:10104000F72000F0A7F9202000F0CAF9EA2000F00C
:10105000A1F9002000F0C4F9002000F0C1F9B1208E
:1010600000F098F9002000F0BBF91B2000F0B8F95F
:10107000B62000F08FF90A2000F0B2F9A22000F0AB
:10108000AFF9C02000F086F9102000F0A9F9C120C6
:1010900000F080F9102000F0A3F9C52000F07AF9E3
:1010A000452000F09DF9152000F09AF9C72000F0C6
:1010B00071F9902000F094F9362000F06BF9C82007
:1010C00000F08EF9F22000F065F9002000F088F9B8
:1010D000B02000F05FF9C22000F082F9B62000F0E5
:1010E00059F90A2000F07CF9A72000F079F92720AF
:1010F00000F076F9042000F073F92A2000F04AF994
:10110000002000F06DF9002000F06AF9002000F0E6
:1011100067F9EF2000F064F92B2000F03BF9002084
:1011200000F05EF9002000F05BF9012000F058F9B2
:101130003F2000F055F9F62000F02CF9012000F0D6
:101140004FF9002000F04CF9062000F049F92C205E
:1011500000F020F9C82001F043FD262000F01AF924
:10116000012000F03DF9E02000F014F90F2000F01C
:1011700037F9292000F034F9242000F031F90C204F
:1011800000F02EF90E2000F02BF9092000F028F9CC
:101190004E2000F025F9782000F022F93C2000F0E4
:1011A0001FF9092000F01CF9132000F019F905209F
:1011B00000F016F9172000F013F9112000F010F9D3
:1011C000002000F00DF9E12000F0E4F8002000F02C
:1011D00007F9162000F004F91B2000F001F90420A3
:1011E00000F0FEF8112000F0FBF8072000F0F8F8FE
:1011F000312000F0F5F8332000F0F2F8422000F042
:10120000EFF8052000F0ECF80C2000F0E9F80A20D7
:1012100000F0E6F8282000F0E3F82F2000F0E0F8D6
:101220000F2000F0DDF8112000F0B4F8C82001F024
:10123000D7FC292000F0AEF82C2000F0ABF810BD50
:1012400000B587B00121202000F0BAFA012108057D
:1012500000F0F6FA8020009001208DF805000220B1
:101260008DF8040000208DF8060002208DF807009C
:1012700069462648FFF7CEFB4FF480700090694620
:101280002248FFF7C7FB4FF40070009069461F48E3
:10129000FFF7C0FB052207211C48FFF703FC0522CE
:1012A00008211A48FFF7FEFB052209211748FFF71E
:1012B000F9FB174800F0F2FF1548008800F04000E5
:1012C00010BB0020ADF808004FF48270ADF80A00A2
:1012D0000020ADF80C00ADF80E00ADF810004FF492
:1012E0000070ADF812001820ADF814000020ADF821
:1012F00016000720ADF8180002A9054801F031F8E2
:101300000121034800F0BEFF07B000BD00140240F9
:101310000050014001490880704700003A00002059
:1013200001490860704700003400002038B94FF0D0
:101330005041064A11600021054A116005E0054947
:10134000024A11600121024A116070473C000020EE
:1013500040000020000005D00149088070470000CF
:101360003800002010B504460848006820B921461E
:10137000074800F041F904E021460548803000F0BC
:101380003BF9012000F0D0F910BD00004000002022
:101390008468014010B5044600224FF400510E4805
:1013A000FFF7AAFC0020FFF75FFC21460B4800F086
:1013B000D6FF00BF0221094800F0C8FF0028F9D07D
:1013C00000BF8021054800F0C1FF0028F9D10120AD
:1013D000FFF74AFC10BD0000000C02400050014025
:1013E00010B50446012251030D48FFF785FC00208B
:1013F000FFF73AFC21460B4800F0B1FF00BF022185
:10140000084800F0A3FF0028F9D000BF802105485C
:1014100000F09CFF0028F9D10120FFF725FC10BD4A
:10142000000C02400050014030B10749096841F00A
:101430000101054A116005E00349096821F0010135
:10144000014A1160704700001868014030B1074937
:10145000096841F48031054A116005E003490968D3
:1014600021F48031014A1160704700001868014082
:10147000F0B50021002200230024002500265B4F48
:101480003F68DFF86CC107EA0C07DFF860C1CCF8F1
:101490000070078A390467463F68D0F814C04CEAE8
:1014A000010C47EA0C07DFF844C1CCF800700CF1DE
:1014B00004073F68DFF838C107EA0C07DFF82CC1E2
:1014C0000CF1040CCCF80070078B3A0467463F68B7
:1014D000D0F81CC04CEA020C47EA0C07DFF80CC13C
:1014E0000CF1040CCCF800700CF104073F68DFF835
:1014F00000C107EA0C07DFF8F4C00CF1080CCCF8C7
:101500000070078C3B0467463F68D0F824C04CEA63
:10151000030C47EA0C07DFF8D4C00CF1080CCCF838
:1015200000700CF104073F68DFF8C4C007EA0C073D
:10153000DFF8B8C00CF10C0CCCF80070078D3C043F
:101540006746D7F800C0C76A27434CEA070C274F05
:101550000C37C7F800C03F1D3F68DFF898C007EAA6
:101560000C07DFF888C00CF1100CCCF80070D0E943
:10157000007C47EA0C07D0F808C047EA0C07D0F80F
:101580000CC047EA0C07DFF864C00CF1100CDCF863
:1015900000C047EA0C07DFF854C00CF1100CCCF87F
:1015A0000070476B3D02078E3E04104F24373F68A2
:1015B00007F07F47DFF834C00CF1240CCCF8007042
:1015C00046EA0507D0F838C047EA0C07DFF81CC028
:1015D0000CF1240CDCF800C047EA0C07DFF80CC063
:1015E0000CF1240CCCF80070F0BD0000086801403C
:1015F00000F800F08F88FE0F4161704721B102684A
:1016000042F00102026003E0026822F0010202607F
:1016100070472DE9F0410024002500260022002714
:101620000023B1F804C04FEA0C44D0F804C00CF415
:10163000704CC0F804C0D1F800C04CEA040CC0F8EB
:1016400004C0B1F80CC04FEA0C45D0F808C00CF447
:10165000704CC0F808C0D1F808C04CEA050CC0F8BE
:1016600008C0D0F810C02CF0070CC0F810C0D1F89A
:1016700010C0C0F810C0D1F81CC04FEA0C26B1F859
:1016800020C04FEA0C4291F824C04FEA0C67D0F812
:1016900018C09C46C0F818C0D1F818C04CEA060C17
:1016A0004CEA020C4CEA070CC0F818C0D0F814C081
:1016B0002CF0FF0CC0F814C0D1F814C0C0F814C04E
:1016C000D0F81CC040F207782CEA080CC0F81CC007
:1016D000D1E90AC84CEA080CC0F81CC0D0F828C0F0
:1016E0009C46C0F828C0D1F830C0C0F828C0B1F876
:1016F00038C04FEA0C43D0F82CC00CF0E02CC0F8F6
:101700002CC0D1F834C04CEA030CC0F82CC0D0F87F
:1017100030C06FF30A0CC0F830C0D1F83CC0C0F83C
:1017200030C0BDE8F081000001490860704700004A
:101730002468014000BFFEE77047000070B500213B
:1017400000230F22C4781CB3174C246804F4E0640F
:10175000C4F5E064C4F30721C1F10404E3B20A4113
:1017600044789C40E1B28478144021430C07210E58
:101770000E4C05786155047804F01F050124AC4037
:1017800005786D11AD0005F1E025C5F8004109E0CF
:10179000047804F01F050124AC40054D067876114D
:1017A00045F8264070BD00000CED00E000E400E0CC
:1017B00080E100E0014908627047000000000E422D
:1017C00029B1064A12680243044B1A6004E0034A36
:1017D00012688243014B1A607047000030380240A3
:1017E00029B1064A12680243044B1A6004E0034A16
:1017F00012688243014B1A6070470000383802407B
:1018000029B1064A12680243044B1A6004E0034AF5
:1018100012688243014B1A60704700004038024052
:1018200029B1064A12680243044B1A6004E0034AD5
:1018300012688243014B1A60704700002038024052
:1018400029B1064A12680243044B1A6004E0034AB5
:1018500012688243014B1A6070470000443802400E
:1018600029B1064A12680243044B1A6004E0034A95
:1018700012688243014B1A6070470000243802400E
:1018800010B501460022002300204A11012A02D18E
:101890000A4C236808E0022A03D1084C70342368FC
:1018A00002E0064C7434236801F01F0201249440C6
:1018B0001C400CB1012000E0002010BD00380240A7
:1018C0000021094A11701170012802D0042808D1A2
:1018D00003E00121044A117004E00521024A11705D
:1018E00000E000BF00BF7047703802400149086047
:1018F00070470000800E474201460020034A1068EE
:1019000020F4403008431060704700008C380240DB
:1019100001490867704700000000474210B5830185
:1019200043EA016343EA0273014C236010BD0000E7
:101930008838024001490860704700003C0E474269
:10194000002100F44072B2F5407F08D1094A1168C5
:1019500021F4F811084A02401143064A1160054A71
:1019600068321268C0F30B031A43024B68331A60E3
:101970007047000008380240FFFCFF0F10B54FF41D
:10198000805000F09BF828B14FF4805000F02EF802
:1019900000F02DFE4FF4005000F090F828B14FF405
:1019A000005000F023F800F023FE4FF4003001490E
:1019B000086010BD143C0140014600BF080900EB5F
:1019C0008000420001F00F001044C0B27047014691
:1019D000002204E0501CC2B2A1F10A00C1B20A29DF
:1019E000F8DA100741EA1060704700000021010991
:1019F0008AB242F08002044B1B6803F0800363EA62
:101A00000202014B1A6070470C28004008B5002202
:101A1000009200200021104A126802F04002CAB968
:101A2000421E0D4B1A6000BF0B4A126802F04001C3
:101A3000009A521C0092009AB2F5803F01D0002912
:101A4000F2D0054A126802F040020AB1012002E019
:101A5000002000E0012008BD0C2800400348006879
:101A600020F0800001490860704700000C28004009
:101A700070B506460C4600250E4800680E4900EA7F
:101A80000105280CE070C5F30420607005F03F00EC
:101A9000A070C5F3423020705EB9E078FFF78CFF8C
:101AA000E0706078FFF788FF6070A078FFF784FF30
:101AB000A07070BD042800403FFFFF0030B5014614
:101AC0000020002200230C4C246804F004020A4C7D
:101AD000383C24680C4002EAD13544EA0503064C40
:101AE000343C246804EA11121BB194B20CB10120F9
:101AF00000E0002030BD00004028004070B50646E0
:101B00000C4600250F4800680F4900EA0105C5F39F
:101B100005402070C5F30620607005F07F00A070BE
:101B200005F48000000CE0705EB92078FFF744FFF8
:101B300020706078FFF740FF6070A078FFF73CFFEF
:101B4000A07070BD002800407F7F7F00CA22174B25
:101B50001A6053221A6091B1144A1C3A126820F09C
:101B600004031A43114B1C3B1A60104A1C321268C2
:101B700000F004031A430D4B1C331A6011E00B4AAA
:101B80001C3A126820F004039A43084B1C3B1A606D
:101B9000064A1C32126800F004039A43034B1C33BC
:101BA0001A60FF22014B1A60704700002428004091
:101BB00030B504460025CA20154908605320086046
:101BC000FFF724FF00B91DE011481C38006820F021
:101BD00040000F491C390860084600682168084326
:101BE0000B491C3908600A491439A0680860084686
:101BF0000068A18840EA0140054914390860FFF7F0
:101C00002DFF0125FF2002490860284630BD000055
:101C10002428004008B501460020009004480090A8
:101C2000009800EB810000900098006808BD00005B
:101C3000502800402DE9F04105460C4600260027BB
:101C40004DB9607800F01000102804D1607820F0C1
:101C500010000A30607005B908E06078FFF7ACFE4C
:101C60000646A078FFF7A8FE064600BF55B1E0780B
:101C70000004617840EA0120A1780843217840EA15
:101C8000413611E0E078FFF7A2FE4FEA00486078A5
:101C9000FFF79DFE48EA0028A078FFF798FE48EA83
:101CA0000008207848EA4036CA20124908605320CC
:101CB0000860FFF7ABFE08B9002714E00E4830407B
:101CC0000C4920390860FFF7C9FE0A481C38006833
:101CD00000F0200030B900F09BF808B9002702E0BE
:101CE000012700E00127FF20024908603846BDE8CF
:101CF000F0810000242800403FFFFF002DE9F04163
:101D000005460C46002600274DB92E48006800F015
:101D1000400000B102E00020E07000BF0DE0294863
:101D2000006800F0400020B12078FFF745FE06462D
:101D300002E00020E07000BF00BF55B12078000431
:101D4000617840EA0120A1780843E17840EA014641
:101D500011E02078FFF73BFE4FEA00486078FFF77C
:101D600036FE48EA0028A078FFF731FE48EA00086E
:101D7000E07848EA0046CA2012491C310860532026
:101D80000860FFF743FE08B9002713E00E48304013
:101D90000C4908390860FFF761FE0A48006800F046
:101DA000200030B900F034F808B9002702E001271C
:101DB00000E00127FF2003491C3108603846BDE8D8
:101DC000F0810000082800407F7F7F00CA21054A7B
:101DD000116053211160034910390860FF2111601F
:101DE000704700002428004010B54FF48040FFF7F2
:101DF00065FE28B14FF48040FFF7F8FD00F0CAFD02
:101E00004FF480000149086010BD0000143C0140FF
:101E100008B50022009200200021CA22134B1A604C
:101E200053221A60114A183A126822F0A0020F4B8E
:101E3000183B1A6000BF0D4A183A126802F02001E0
:101E4000009A521C0092009AB2F5003F01D000297E
:101E5000F1D0064A183A126802F020020AB10120B5
:101E600000E00020FF22014B1A6008BD242800403A
:101E7000CA210A4A11605321116008491C390968B6
:101E800021F00701054A1C3A116011460968014317
:101E90001160FF21014A11607047000024280040B2
:101EA00018B501460023009300220020CA23194CD4
:101EB00023605323236049B1164B1C3B1B6843F43A
:101EC0008063144C1C3C236001201FE0114B1C3B21
:101ED0001B6823F480630F4C1C3C236000BF0D4B38
:101EE000183B1B6803F00402009B5B1C0093009BE3
:101EF000B3F5803F01D0002AF1D0064B183B1B6898
:101F000003F004030BB9002000E00120FF23014C83
:101F1000236018BD2428004008B500220092044A1E
:101F20000092009A02EB80020092009A116008BDB4
:101F30005028004018B1FF21044A116004E0CA2172
:101F4000024A1160532111607047000024280040AC
:101F50001CB501217E20FFF733FC02208DF8040020
:101F60008DF8050000208DF806008DF807000C2282
:101F700005217248FEF796FD0C2206216F48FEF7F8
:101F800091FD6020009069466C48FEF743FD0C22ED
:101F900000216B48FEF786FD0120009069466848E5
:101FA000FEF738FD0C2200216648FEF77BFD0C226F
:101FB00001216448FEF776FD0C2208216148FEF7F6
:101FC00071FD0C2209215F48FEF76CFD0C220A21ED
:101FD0005C48FEF767FD0C220E215A48FEF762FDB1
:101FE0000C220F215748FEF75DFD4CF20370009064
:101FF00069465448FEF70EFD0C2200215248FEF7B8
:1020000051FD0C2201215048FEF74CFD0C22072106
:102010004D48FEF747FD0C2208214B48FEF742FDD4
:102020000C2209214848FEF73DFD0C220A214648B2
:10203000FEF738FD0C220B214348FEF733FD0C223E
:1020400011464148FEF72EFD0C220D213E48FEF7B9
:1020500029FD0C220E213C48FEF724FD0C220F2105
:102060003948FEF71FFD4FF68370009069463648E9
:10207000FEF7D0FC0C2200213448FEF713FD0C22A1
:1020800001213248FEF70EFD0C2202212F48FEF7F7
:1020900009FD0C2203212D48FEF704FD0C2204212A
:1020A0002A48FEF7FFFC0C2205212848FEF7FAFC1F
:1020B0000C220B212548FEF7F5FC0C221146234883
:1020C000FEF7F0FC0C220D212048FEF7EBFC0C2261
:1020D0000E211E48FEF7E6FC0C220F211B48FEF7DE
:1020E000E1FC4FF63F00009069461848FEF792FC6D
:1020F0000C2200211648FEF7D5FC0C2201211448C1
:10210000FEF7D0FC0C2204211148FEF7CBFC0C2278
:1021100005210F48FEF7C6FC0C2208210C48FEF7EB
:10212000C1FC0C220F210A48FEF7BCFC48F2331018
:10213000009069460648FEF76DFC1CBD0004024095
:1021400000080240000C024000100240001402404F
:102150000018024000B593B0FFF7FAFE01210846CF
:10216000FFF73EFB0220019007200290042003901D
:102170000720049002200590069007900120089007
:102180000020099004200A9010200B9040200C9011
:102190004FF4C0700D9000200E904FF400600F902F
:1021A000002010904FF40050119001A8129008A840
:1021B000FEF7A8FB00F002F813B000BD1FB5002425
:1021C000012000900820019001200290002003903F
:1021D00000BF20210120FEF761FB0028F9D16846ED
:1021E000FEF780FB0A2000F009FD02200090082085
:1021F0000190012002900020039000BF20210120C7
:10220000FEF74CFB0028F9D16846FEF76BFB032074
:10221000009008200190042002900020039000BF4D
:1022200020210120FEF73AFB0028F9D16846FEF78D
:1022300059FB00BF20210120FEF730FB0028F9D117
:102240006846FEF74FFB40F231240420009008203E
:10225000019001200290039400BF20210120FEF78D
:102260001DFB0028F9D16846FEF73CFB40F26A509E
:10227000FEF7C4FB00BF20210120FEF70FFB002862
:10228000F9D11FBD21B1028842F04002028004E072
:1022900002884FF6BF731A400280704710B504469B
:1022A0002448844208D101218014FFF7D9FA002183
:1022B000A014FFF7D5FA3CE01F48844208D1012161
:1022C0000014FFF7ADFA00212014FFF7A9FA30E05F
:1022D0001A48844208D10121C013FFF7A1FA002156
:1022E000E013FFF79DFA24E01548844208D101214C
:1022F0004014FFF7B5FA00216014FFF7B1FA18E0B7
:102300001048844209D101210805FFF7A9FA0021EC
:102310004FF48010FFF7A4FA0BE00B48844208D179
:1023200001214805FFF79CFA00214FF40010FFF748
:1023300097FA10BD0030014000380040003C0040DA
:10234000003401400050014000540140024600208A
:1023500013890B400BB1012000E000207047818100
:10236000704710B50022028802F441520B884C8855
:1023700023438C882343CC8823430C8923434C89F3
:1023800023438C892343CC8923431A430280838BC4
:102390004FF2FF74234083830B8A038210BD000039
:1023A000034931F81010034A52F820205183704736
:1023B000EC2C000804000020034931F81010034AF7
:1023C00052F8202011837047EC2C000804000020F4
:1023D0000CB50020019000904248006840F4803025
:1023E0004049086000BF3F48006800F4003000909A
:1023F0000198401C0190009818B90198B0F5A04FC1
:10240000F1D13848006800F4003010B1012000908C
:1024100001E0002000900098012803D132483149A2
:10242000091D08602F484030006840F080502D4959
:10243000403108602D48006840F440402B49086056
:1024400028480830006827490831086008460068B5
:1024500040F4004008600846006840F4A05008605E
:102460002048006840F080701E49086000BF1D4889
:10247000006800F000700028F9D01C48006840F4A3
:1024800080301A49086000BF1848406800F4803066
:102490000028F9D01548006840F40030134908605E
:1024A00000BF1248406800F400300028F9D040F224
:1024B00005700F4908600B480830006820F00300E1
:1024C0000849083108600846006840F002000860CA
:1024D00000BF04480830006800F00C000828F8D15C
:1024E0000CBD000000380240085A40070070004050
:1024F000003C02400448006820B103480068401EC8
:1025000001490860704700004400002010B51548DC
:10251000006840F47000134908601348006840F0F8
:1025200001001149086000200F49083108600E4879
:1025300000680E4908400C4908600D48091D0860F4
:10254000081F006820F48020091F08600020064949
:102550000C310860FFF73CFF4FF000600149803903
:10256000086010BD88ED00E000380240FFFFF6FE75
:10257000103000243EB5002416A207CA8DE80700DB
:102580001748007830B90120154908700020FFF77E
:1025900013FF08E012480078012804D100201049F8
:1025A0000870FFF7FDFE00240CE01DF804100D4834
:1025B00000F009FB00BF40210A4800F0F7FA0028AC
:1025C000F9D0641C0C2CF0DB0121880700F00CF81A
:1025D0003EBD000068656C6C6F20776F726C640A9A
:1025E0000000002000440040CA4302827047704748
:1025F000704710B504466CB90120FFF777F900BFAA
:102600006120FFF73DF90028FAD04FF40070FFF782
:1026100097F90EE0012C0CD10120FFF751F900BF12
:102620004120FFF72DF90028FAD04FF48070FFF712
:1026300087F90120FFF77EF90020FFF77BFCFFF709
:10264000E7FB0120FFF776FC41F234211320FFF76E
:1026500063FC10BD70B504460D4625B9184900202D
:10266000FFF74CFA03E016490120FFF747FA144838
:10267000007860711248407820711148807820708D
:1026800010480068608025B90F490020FFF7F0F975
:1026900003E00D490120FFF7EBF90B48C0786072A9
:1026A00009484078207208488078E0710648007830
:1026B000A071204600F00AF80646E66070BD0000F2
:1026C0004C0000202828004050000020F0B50346B0
:1026D00000240025587A00F5FA6240F2B270824276
:1026E00001DA0020F0BD40F2B2711CE00846CE17BE
:1026F00001EB9676B610A1EB86062EB9642691FB07
:10270000F6F706FB171636B94FF4C87691FBF6F7C5
:1027100006FB171616B94FF4B77601E040F26D16B6
:102720003444481C81B29142E0DB012121E0104693
:10273000D61702EB9676B610A2EB86062EB9642663
:1027400092FBF6F706FB172636B94FF4C87692FBD4
:10275000F6F706FB17260EB9012600E0002606EB69
:102760004606104F07EB86074E1EBE5D3444481CDC
:1027700081B2187A8842DADCD879401E04440A48CB
:1027800004FB00F55879C0EB4016C6EB002005EBC2
:1027900000151879C0EB001005EB8005187805448A
:1027A00028469FE760000020805101007FB5044665
:1027B000012601210807FFF723F80120FEF7FAFFA1
:1027C0001320FFF727FA054644F2213085421AD13B
:1027D0002F49086014B90020FFF70BFF0020FFF716
:1027E000A9FBFFF715FB0120FFF7A4FB4FF4804086
:1027F000FFF7FCF84FF48000264908600021684686
:10280000FFF728FF3DE041F2342085421AD12049EC
:10281000086014B90020FFF7ECFE0020FFF78AFBE8
:10282000FFF7F6FA0120FFF785FB4FF48040FFF732
:10283000DDF84FF480001749086000216846FFF773
:1028400009FF1EE000201249086000262046FFF71D
:10285000D0FE01208DF807008DF806008DF80800E5
:1028600000208DF809008DF805008DF804008DF822
:1028700000000021684600F08FF841F2342004493E
:10288000086016B9002004B070BD01480068FAE77E
:1028900048000020143C014070B504464FF480000D
:1028A000374908600020FFF7FBFA00214FF4804011
:1028B000FFF74CF9032033490870042048700020CA
:1028C0008870C8700846FEF739FF4FF480002E4923
:1028D00008600020087108204871002088710846AF
:1028E000FDF792FF002C4AD001202649C870084607
:1028F000FEF724FF0120244988710846FDF784FF74
:102900000020FFF7CDFA012C01D1204D2AE0022C46
:1029100001D11F4D26E0032C02D14EF6FF7521E0B8
:10292000042C02D149F6FF751CE0052C02D144F6B7
:10293000FF7517E0062C02D141F6FF7512E0072C57
:1029400002D140F6FF750DE0082C02D140F2FF7570
:1029500008E0092C02D140F2FF3503E00A2C01D136
:1029600040F2FF150120FFF783FA2846FFF72EFA01
:1029700001218803FFF7EAF80120FFF791FA70BD03
:10298000143C01405400002058000020FFBF030009
:10299000FFDF0100704700007FB504460D46012DA2
:1029A00054D1E07900F00F00E179090901EB8101D0
:1029B00000EB4100C0B28DF80700207A00F00F0054
:1029C000217A090901EB810100EB4100C0B28DF8C9
:1029D0000800607A00F00F00617A090901EB8101BB
:1029E00000EB4100C0B28DF80900607900F00F00E3
:1029F0006179090901EB810100EB4100C0B28DF85A
:102A00000500207900F00F002179090901EB81010F
:102A100000EB4100C0B28DF80400207800F00F00F8
:102A20002178090901EB810100EB4100C0B28DF86A
:102A30000000A07900F00F00A179090901EB8101E4
:102A400000EB4100C0B28DF8060014E0E0798DF88B
:102A50000700207A8DF80800607A8DF80900607907
:102A60008DF8050020798DF8040020788DF800009D
:102A7000A0798DF806009DF8091063294EDC9DF8B9
:102A80000810E9B39DF808100C2947DC9DF80710E1
:102A9000B1B39DF8091001F5FA60C11700EB91710F
:102AA0008910A0EB810149B99DF8091001F5FA617F
:102AB000642291FBF2F302FB131151B99DF8091046
:102AC00001F5FA614FF4C87291FBF2F302FB1311A6
:102AD00009B9012100E0002101EB41012E4A02EB7E
:102AE00081029DF80810491E515C9DF80720914213
:102AF00014DB9DF80510172910DC9DF8041000E088
:102B00000CE03B290ADC9DF800103B2906DC9DF80F
:102B1000061019B19DF80610072902DD012004B046
:102B200070BD60791D4908702079487020788870E0
:102B3000E0791B498870207A4870607AC870A07963
:102B400008700020174908601F20486040F2FF30DD
:102B500088600846FFF72CF8012D04D10F490120A9
:102B6000FFF7CCF803E00D490020FFF7C7F8012D6F
:102B700004D10B490120FFF75DF803E0084900206C
:102B8000FFF758F80848006820B144F221311320BB
:102B9000FFF7C2F90020C2E7600000204C000020CF
:102BA00050000020D40000204800002002460020F1
:102BB000B1F5007F00D100BF13880B400BB101209D
:102BC00000E000207047C1F308028280704700BF18
:102BD000FEE730380A2801D20120704700207047F4
:102BE00001B581B0002000900198009002E00098AB
:102BF000401E009000980028F9D10CBD01B581B0AD
:102C000000200090054901984843009002E0009898
:102C1000401E009000980028F9D10CBDA08601004C
:102C200030B51149481EB0F1807F00D31BE0481E2B
:102C30004FF0E022506150170F22002807DA1307E7
:102C40001D0E0A4B00F00F04241F1D5503E013074F
:102C50001C0E074B1C5400BF00204FF0E022906177
:102C60000720106100BF30BD20BF020018ED00E05A
:102C700000E400E0FFF7D4FFFDF74CFDFFF746FC52
:102C80000720FFF709FE0020FFF790FD0021124802
:102C9000FFF782FE1FE01148006900F0010080F09C
:102CA000010090B90E200C4948713B200871322078
:102CB000087013204872062008720D20C871042085
:102CC000887100210448FFF767FE00210248FFF7E2
:102CD000C1FCFDF7A9FCDEE7AC00002000000240CB
:102CE0004FF04070E1EE100A7047000000200040F5
:102CF0004000000040000000010000000100000052
:102D000001000000060000000000000000000000BC
:102D100000000000000000000000000000000000B3
:102D200000000000000000000000000000000000A3
:102D3000000000000000000080018001800180018F
:102D4000800180018001800180018001800180017B
:102D500080010000000080018001000000000000F0
:102D600000000000000000000000CC00CC00CC00FF
:102D7000CC00CC00CC0000000000000000000000EF
:102D80000000000000000000000000000000000043
:102D90000000000000000000000000000000000033
:102DA0000000600C600C600C30063006FE1FFE1F39
:102DB000300638071803FE1FFE1F180318038C0186
:102DC0008C018C01000000008000E003F80F9C0ED5
:102DD0008C1C8C188C009800F801E007800E801C79
:102DE0008C188C189C18B80CF00FE0038000800041
:102DF0000000000000000000000000000E181B0C86
:102E0000110C11061106110311039B018E01C0382C
:102E1000C06C60446044304430441844186C0C3832
:102E20000000000000000000E001F0033807180671
:102E300018063003F001F000F8009C310E33061E36
:102E4000061C061C063FFC73F02100000000000079
:102E5000000000000000000000000C000C000C004E
:102E60000C000C000C00000000000000000000003E
:102E70000000000000000000000000000000000052
:102E80000000000000000000000200038001C000FC
:102E9000C0006000600030003000300030003000C2
:102EA00030003000300060006000C000C0008001D1
:102EB000000300020000000020006000C00080014C
:102EC000800100030003000600060006000600065D
:102ED0000006000600060003000380018001C00018
:102EE0006000200000000000000000000000000062
:102EF0000000C000C000D806F807E0013003380722
:102F000000000000000000000000000000000000C1
:102F100000000000000000000000000000000000B1
:102F2000000080018001800180018001FC3FFC3FA6
:102F3000800180018001800180010000000000000C
:102F40000000000000000000000000000000000081
:102F50000000000000000000000000000000000071
:102F6000000000000000000080018001000100015D
:102F700080000000000000000000000000000000D1
:102F80000000000000000000000000000000E0075A
:102F9000E00700000000000000000000000000004A
:102FA0000000000000000000000000000000000021
:102FB0000000000000000000000000000000000011
:102FC0000000000000000000C000C0000000000081
:102FD0000000000000000000000C000C00060006CD
:102FE00000060003000300038003800180018001CC
:102FF000C000C000C00060006000000000000000D1
:103000000000000000000000E003F007380E180C7C
:103010000C180C180C180C180C180C180C180C1890
:103020000C18180C380EF007E00300000000000038
:10303000000000000000000000018001C001F0015C
:103040009801880180018001800180018001800158
:1030500080018001800180018001000000000000EB
:103060000000000000000000E003F80F180C0C182E
:103070000C1800180018000C000600038001C000A6
:10308000600030001800FC1FFC1F00000000000062
:103090000000000000000000E001F807180E0C0C12
:1030A0000C0C000C0006C003C007000C0018001830
:1030B0000C180C18180CF807E003000000000000C2
:1030C0000000000000000000000C000E000F000FC8
:1030D000800DC00C600C600C300C180C0C0CFC3F0C
:1030E000FC3F000C000C000C000C00000000000075
:1030F0000000000000000000F80FF80F1800180092
:103100000C00EC03FC071C0E001C00180018001833
:103110000C181C0C180EF807E0030000000000005B
:103120000000000000000000C007F00F381C181855
:1031300018000C00CC03EC0F3C0E1C1C0C180C18D7
:103140000C18181C380EF007E00300000000000007
:103150000000000000000000FC1FFC1F000C000627
:103160000006000380038001C001C000E000600091
:1031700060007000300030003000000000000000EF
:103180000000000000000000E003F007380E180CFB
:10319000180C180C3806F007F007180C0C180C184F
:1031A0000C180C18380CF80FE003000000000000A9
:1031B0000000000000000000E003F007380E1C0CC7
:1031C0000C180C180C181C1C381EF81BE0190018E1
:1031D000000C000C1C0EF807F001000000000000BD
:1031E00000000000000000000000000000000000DF
:1031F00000008001800100000000000000000000CD
:1032000000000000000080018001000000000000BC
:1032100000000000000000000000000000000000AE
:10322000000080018001000000000000000000009C
:10323000000000000000800180010001000180000A
:10324000000000000000000000000000000000007E
:103250000000000000000010001C800FE003F800D8
:103260001800F800E003800F001C001000000000B0
:10327000000000000000000000000000000000004E
:10328000000000000000F81F000000000000F81F10
:10329000000000000000000000000000000000002E
:1032A000000000000000000000000000000000001E
:1032B00000000000000008003800F001C007001FF7
:1032C0000018001FC007F0013800080000000000CF
:1032D0000000000000000000E003F80F180C0C18BC
:1032E0000C180018000C000600038001C000C0008C
:1032F000C00000000000C000C0000000000000008E
:1033000000000000000000000000E0071818042082
:10331000C229224A114409440944094409221113CB
:10332000E20C024004201818E00700000000000032
:10333000000000000000000080038003C006C006FB
:10334000C006600C600C301830183018F83FF83F99
:103350001C700C600C6006C006C00000000000007D
:103360000000000000000000FC03FC0F0C0C0C1817
:103370000C180C180C0CFC07FC0F0C180C300C3043
:103380000C300C300C18FC1FFC0700000000000083
:103390000000000000000000C007F01F38381C309B
:1033A0000C70066006000600060006000600060017
:1033B00006600C701C30F01FE007000000000000E9
:1033C0000000000000000000FE03FE0F060E0618BD
:1033D0000618063006300630063006300630063055
:1033E00006180618060EFE0FFE030000000000007F
:1033F0000000000000000000FC3FFC3F0C000C003F
:103400000C000C000C00FC1FFC1F0C000C000C003E
:103410000C000C000C00FC3FFC3F00000000000012
:103420000000000000000000F83FF83F18001800FE
:10343000180018001800F81FF81F180018001800CE
:103440001800180018001800180000000000000004
:103450000000000000000000E00FF83F3C780E6024
:1034600006E007C00300030003FE03FE03C007C01D
:1034700006C00EC03CF0F83FE00F00000000000066
:1034800000000000000000000C300C300C300C304C
:103490000C300C300C30FC3FFC3F0C300C300C304E
:1034A0000C300C300C300C300C30000000000000F0
:1034B0000000000000000000800180018001800108
:1034C00080018001800180018001800180018001F4
:1034D0008001800180018001800100000000000067
:1034E00000000000000000000006000600060006C4
:1034F000000600060006000600060006000600069C
:10350000180618063807F003E0010000000000006C
:10351000000000000000000006300618060C060639
:1035200006038601C60066007600DE008E010603F3
:103530000606060C061806300660000000000000B3
:10354000000000000000000018001800180018001B
:1035500018001800180018001800180018001800AB
:10356000180018001800F81FF81F000000000000E5
:1035700000000000000000000EE01EF01EF01EF033
:1035800036D836D836D836D866CC66CC66CCC6C6E1
:10359000C6C6C6C6C6C686C386C3000000000000F5
:1035A00000000000000000000C301C303C303C30BB
:1035B0006C306C30CC30CC308C310C330C330C365E
:1035C0000C360C3C0C3C0C380C30000000000000A9
:1035D0000000000000000000E007F81F1C380E701B
:1035E000066003C003C003C003C003C003C003C020
:1035F00006600E701C38F81FE00700000000000095
:103600000000000000000000FC0FFC1F0C380C3014
:103610000C300C300C300C18FC1FFC070C000C009C
:103620000C000C000C000C000C000000000000005E
:103630000000000000000000E007F81F1C380E70BA
:10364000066003E003C003C003C003C003C007E07B
:1036500006630E3F1C3CF83FE0F700C0000000008E
:103660000000000000000000FE0FFE1F06380630BC
:10367000063006300638FE1FFE0706030606060C57
:10368000061806180630063006600000000000002C
:103690000000000000000000E003F80F1C0C0C18F4
:1036A0000C180C001C00F803E00F001E0038063058
:1036B00006300E301C1CF80FE00700000000000070
:1036C0000000000000000000FE7FFE7F80018001FE
:1036D00080018001800180018001800180018001E2
:1036E0008001800180018001800100000000000055
:1036F00000000000000000000C300C300C300C30DA
:103700000C300C300C300C300C300C300C300C30D9
:103710000C300C301818F81FE00700000000000003
:103720000000000000000000036006300630063094
:103730000C180C180C18180C180C380E3006300623
:10374000700760036003C001C001000000000000BA
:1037500000000000000000000360C361C361C3619A
:103760006633663366336633663366336C1B6C1BB5
:103770006C1B2C1A3C1E380E380E00000000000096
:1037800000000000000000000FE00C70183030183E
:10379000700C600EC00780038003C003E006700C4D
:1037A000301C18180C300E6007E00000000000000C
:1037B000000000000000000003C006600C301C3850
:1037C0003818300C6006E007C003800180018001DA
:1037D0008001800180018001800100000000000064
:1037E0000000000000000000FC7FFC7F0060003053
:1037F0000018000C000600038001C00060003000CB
:1038000018000C000600FE7FFE7F00000000000094
:103810000000000000000000E003E0036000600022
:103820006000600060006000600060006000600098
:103830006000600060006000600060006000600088
:10384000E003E00300000000300030006000600092
:103850006000C000C000C000C00180018001800184
:103860000003000300030006000600000000000043
:103870000000000000000000E003E003000300037C
:103880000003000300030003000300030003000320
:103890000003000300030003000300030003000310
:1038A000E003E003000000000000C001C00160036D
:1038B0006003600330063006180C180C000000008E
:1038C00000000000000000000000000000000000F8
:1038D00000000000000000000000000000000000E8
:1038E00000000000000000000000000000000000D8
:1038F0000000000000000000FFFFFFFF00000000CC
:1039000000000000000000000C000C000C000C0087
:103910000C000C000000000000000000000000008F
:103920000000000000000000000000000000000097
:103930000000000000000000000000000000000087
:103940000000F003F8071C0C0C0C000FF00FF80C33
:103950000C0C0C0C1C0FF80FF018000000000000FD
:1039600000000000000000001800180018001800F7
:103970001800D803F80F380C181818181818181849
:1039800018181818380CF80FD803000000000000B1
:103990000000000000000000000000000000000027
:1039A0000000C003F007300E180C180018001800B3
:1039B0001800180C300EF007C003000000000000D3
:1039C0000000000000000000001800180018001897
:1039D0000018C01BF01F301C1818181818181818D9
:1039E00018181818301CF01FC01B00000000000041
:1039F00000000000000000000000000000000000C7
:103A00000000C003F00F300C1818F81FF81F180042
:103A100018003818301CF00FC0070000000000002C
:103A20000000000000000000800FC00FC000C000B8
:103A3000C000F007F007C000C000C000C000C00018
:103A4000C000C000C000C000C000000000000000B6
:103A50000000000000000000000000000000000066
:103A60000000E00DF80F180E0C0C0C0C0C0C0C0CDC
:103A70000C0C0C0C180EF80FE00D000C0C0C1C06B6
:103A8000F807F001000000001800180018001800E6
:103A90001800D807F80F381C181818181818181814
:103AA0001818181818181818181800000000000026
:103AB0000000000000000000C000C0000000000086
:103AC0000000C000C000C000C000C000C000C000B6
:103AD000C000C000C000C000C00000000000000026
:103AE0000000000000000000C000C0000000000056
:103AF0000000C000C000C000C000C000C000C00086
:103B0000C000C000C000C000C000C000C000C000B5
:103B1000F8007800000000000C000C000C000C0005
:103B20000C000C0C0C060C038C01CC006C00FC008F
:103B30009C018C030C030C060C0C00000000000020
:103B40000000000000000000C000C000C000C00075
:103B5000C000C000C000C000C000C000C000C00065
:103B6000C000C000C000C000C00000000000000095
:103B70000000000000000000000000000000000045
:103B800000007C3CFF7EC7E383C183C183C183C146
:103B900083C183C183C183C183C1000000000000D1
:103BA0000000000000000000000000000000000015
:103BB00000009807F80F381C18181818181818184B
:103BC0001818181818181818181800000000000005
:103BD00000000000000000000000000000000000E5
:103BE0000000C003F00F300C181818181818181817
:103BF00018181818300CF00FC00300000000000067
:103C000000000000000000000000000000000000B4
:103C10000000D803F80F380C1818181818181818BE
:103C200018181818380CF80FD803180018001800C6
:103C30001800180000000000000000000000000054
:103C40000000C01BF01F301C18181818181818187E
:103C500018181818301CF01FC01B00180018001886
:103C60000018001800000000000000000000000024
:103C70000000B007F003700030003000300030006A
:103C80003000300030003000300000000000000044
:103C90000000000000000000000000000000000024
:103CA0000000E003F003380E180C3800F003C007E2
:103CB000000C180C380EF007E003000000000000B4
:103CC000000000000000000000008000C000C000F4
:103CD000C000F007F007C000C000C000C000C00076
:103CE000C000C000C000C007800700000000000046
:103CF00000000000000000000000000000000000C4
:103D00000000181818181818181818181818181863
:103D100018181818381CF01FE019000000000000E7
:103D20000000000000000000000000000000000093
:103D300000000C18180C180C180C30063006300651
:103D4000600360036003C001C001000000000000C8
:103D50000000000000000000000000000000000063
:103D60000000C141C141C36163636363636336366D
:103D7000363636361C1C1C1C1C1C000000000000C3
:103D80000000000000000000000000000000000033
:103D900000001C38381C300C6006600360036003B0
:103DA00060036006300C381C1C3800000000000066
:103DB0000000000000000000000000000000000003
:103DC00000001830301830187018600C600CE00CCF
:103DD000C006C00680038003800380018001C0010B
:103DE000F000700000000000000000000000000073
:103DF0000000FC1FFC1F000C000600038001C00037
:103E0000600030001800FC1FFC1F000000000000D4
:103E1000000000000000000000038001C000C0009E
:103E2000C000C000C000C000600060003000600042
:103E30004000C000C000C000C000C000C000800141
:103E4000000300000000000080018001800180016B
:103E5000800180018001800180018001800180015A
:103E6000800180018001800180018001800180014A
:103E700080018001000000006000C000C0018001DE
:103E8000800180018001800100030003000600031F
:103E90000001800180018001800180018001C0005B
:103EA00060000000000000000000000000000000B2
:103EB000000000000000F010F81F080F00000000D4
:103EC00000000000000000000000000000000000F2
:103ED00000000000000000000000000000000000E2
:103EE00000000000000000000000000000000000D2
:103EF00000200020002000200020002000200000E2
:103F000000200000000000000050005000500000A1
:103F100000000000000000000000000000000000A1
:103F2000000900090012007F0012007F0012002427
:103F30000024000000000010003800540050005021
:103F40000038001400540054003800100000000035
:103F5000803000490049004AC0322005200920096C
:103F6000C010000000000000000C0012001200143D
:103F70000018002500230023801D00000000000021
:103F80000040004000400000000000000000000071
:103F900000000000000000000008001000100020D9
:103FA0000020002000200020002000100010000051
:103FB0000040002000200010001000100010001031
:103FC00000100020002000000020007000200050A1
:103FD00000000000000000000000000000000000E1
:103FE0000000000000080008007F00080008000032
:103FF00000000000000000000000000000000000C1
:104000000000000000000000002000200040000030
:104010000000000000000000000000700000000030
:104020000000000000000000000000000000000090
:104030000000000000000000002000000000000060
:104040000010001000100020002000200020004080
:104050000040000000000000001000280044004460
:10406000004400440044002800100000000000004C
:104070000010003000500010001000100010001060
:104080000010000000000000003000480044000460
:104090000008001000200040007C0000000000002C
:1040A00000300048000400080010000800440048E8
:1040B0000030000000000000000800180018002870
:1040C00000280048007C00080008000000000000F4
:1040D000003C0020004000700048000400440048FC
:1040E00000300000000000000018002400400050D4
:1040F0000068004400440028001000000000000098
:10410000007C0004000800100010001000200020B7
:1041100000200000000000000010002800440028DB
:1041200000100028004400280010000000000000DB
:104130000010002800440044002C00140004004833
:10414000003000000000000000000000002000001F
:10415000000000000000000000200000000000003F
:10416000000000000020000000000000000000002F
:104170000020002000400000000000040008003083
:1041800000400030000800040000000000000000B3
:1041900000000000007C00000000007C0000000027
:1041A0000000000000000000000000400020001897
:1041B0000004001800200040000000000000000083
:1041C00000380064004400040008001000100000E3
:1041D0000010000000000000800F4010A02EA05131
:1041E0002051205120512053C04D2020401000006C
:1041F00000080014001400140022003E00220041B8
:104200000041000000000000003C002200220022CB
:10421000003C002200220022003C000000000000C0
:10422000000E0011002100200020002000210011BC
:10423000000E000000000000003C002200210021D0
:104240000021002100210022003C000000000000AD
:10425000003E002000200020003E00200020002022
:10426000003E000000000000003E00200020002072
:10427000003C002000200020002000000000000082
:10428000000E001100210020002700210021001154
:10429000000E00000000000000210021002100218C
:1042A000003F00210021002100210000000000004B
:1042B00000200020002000200020002000200020FE
:1042C00000200000000000000008000800080008AE
:1042D000000800080048004800300000000000000E
:1042E0000022002400280028003800280024002490
:1042F000002200000000000000200020002000201C
:104300000020002000200020003E000000000000EF
:104310008020803180318031802A802A802A802A42
:10432000802400000000000000210031003100293D
:1043300000290025002300230021000000000000C8
:10434000000C001200210021002100210021001298
:10435000000C000000000000003C002200220022AF
:10436000003C002000200020002000000000000091
:10437000000C001200210021002100210021001664
:10438000000D000100000000003E0021002100217E
:10439000003E0024002200218020000000000000D8
:1043A000001C002200220020001C0002002200222B
:1043B000001C000000000000003E0008000800088B
:1043C00000080008000800080008000000000000C5
:1043D00000210021002100210021002100210012E4
:1043E000000C0000000000000041004100220022FB
:1043F0000022001400140014000800000000000057
:104400004044404A402A802A802A802A802A802AE2
:104410000011000000000000004100220014001400
:1044200000080014001400220041000000000000F9
:1044300000410022002200140008000800080008C3
:104440000008000000000000007E000200040008D8
:104450000010001000200040007E0000000000005E
:10446000003000200020002000200020002000203C
:10447000002000200020000000400040002000201C
:1044800000200020002000100010000000000000AC
:1044900000600020002000200020002000200020DC
:1044A0000020002000200000001000280028002824
:1044B00000440000000000000000000000000000B8
:1044C00000000000000000000000000000000000EC
:1044D00000000000007E00400020000000000000FE
:1044E00000000000000000000000000000000000CC
:1044F00000000000003800440004003C0044004478
:10450000003C000000000000004000400058006433
:104510000044004400440064005800000000000013
:10452000000000000030004800400040004000480B
:104530000030000000000000000400040034004CC3
:10454000004400440044004C00340000000000001F
:1045500000000000003800440044007C004000449B
:1045600000380000000000000060004000E0004053
:1045700000400040004000400040000000000000FB
:10458000000000000034004C004400440044004C93
:104590000034000400440000004000400058006463
:1045A00000440044004400440044000000000000B7
:1045B000004000000040004000400040004000403B
:1045C00000400000000000000040000000400040EB
:1045D000004000400040004000400040004000001B
:1045E000004000400048005000600050005000486B
:1045F0000048000000000000004000400040004073
:10460000004000400040004000400000000000006A
:10461000000000000052006D0049004900490049B7
:104620000049000000000000000000000058006485
:104630000044004400440044004400000000000026
:1046400000000000003800440044004400440044DE
:104650000038000000000000000000000058006466
:104660000044004400440064005800400040000042
:10467000000000000034004C004400440044004CA2
:10468000003400040004000000000000005000603E
:1046900000400040004000400040000000000000DA
:1046A00000000000003000480040003000080048D2
:1046B00000300000000000000040004000E000402A
:1046C000004000400040004000600000000000008A
:1046D0000000000000440044004400440044004C3A
:1046E000003400000000000000000000004400440E
:1046F000002800280028002800100000000000000A
:1047000000000000004900490055005500550055C3
:10471000002200000000000000000000004400280B
:1047200000280010002800280044000000000000BD
:104730000000000000440044002800280028001069
:1047400000100010001000000000000000780008B9
:104750000010002000200040007800000000000051
:104760000010002000200020002000400020002039
:104770000020002000200000002000200020002059
:104780000020002000200020002000200020000049
:104790000040002000200020002000100020002009
:1047A0000020002000200000000000000000007435
:1047B00000580000000000000000000000000000A1
:1047C0000000007000500050005000500050005099
:1047D0000070000000000000000000000000000069
:1047E00000000000000000000000000000000000C9
:1047F0000000000010001000100010001000100059
:104800000000100000000000000000002800280048
:104810002800000000000000000000000000000070
:1048200000000000140014003E00140028007C006A
:10483000280028000000000000001000380054008C
:10484000500038001400140054003800100000001C
:10485000000000004400A800A800500014001A0046
:104860002A0024000000000000000000200050008A
:1048700050002000E8009800980060000000000050
:1048800000000000800080008000000000000000A8
:104890000000000000000000000000004000800058
:1048A0008000800080008000800080008000000088
:1048B0000000000080004000400040004000400038
:1048C0004000400040000000000000004000E00008
:1048D0004000A000000000000000000000000000F8
:1048E000000000000000000020002000F800200070
:1048F0002000000000000000000000000000000098
:104900000000000000000000000040004000000027
:104910000000000000000000000000000000C000D7
:104920000000000000000000000000000000000087
:104930000000000000000000000040000000000037
:104940000000000020002000200040004000800007
:104950008000800000000000000000006000900067
:104960009000900090009000900060000000000017
:104970000000000020006000A000200020002000B7
:1049800020002000000000000000000060009000F7
:1049900010001000200040008000F0000000000027
:1049A0000000000060009000100060001000100087
:1049B00090006000000000000000000010003000C7
:1049C000500050009000F80010001000000000009F
:1049D00000000000700040008000E00010001000A7
:1049E00090006000000000000000000060009000E7
:1049F0008000A000D0009000900060000000000047
:104A000000000000F0001000200020002000400006
:104A10004000400000000000000000006000900026
:104A20009000600090009000900060000000000086
:104A300000000000600090009000B00050001000E6
:104A40009000600000000000000000000000000076
:104A500040000000000000000000400000000000D6
:104A60000000000000000000400000000000000006
:104A700000004000400000000000000000000000B6
:104A800010006000800060001000000000000000C6
:104A900000000000000000000000F0000000F00036
:104AA0000000000000000000000000000000000006
:104AB0008000600010006000800000000000000026
:104AC0000000000060009000100020004000400046
:104AD0000000400000000000000000001C00220058
:104AE0005B00A500A500A500A5009E0041000000F8
:104AF00000000000200050005000500050007000E6
:104B0000880088000000000000000000F00088001D
:104B10008800F000880088008800F0000000000095
:104B20000000000038004400840080008000840001
:104B3000440038000000000000000000E000900089
:104B400088008800880088009000E00000000000D5
:104B500000000000F80080008000F8008000800065
:104B60008000F80000000000000000007800400015
:104B70004000700040004000400040000000000085
:104B80000000000038004400840080009C00840085
:104B90004400380000000000000000008800880089
:104BA0008800F80088008800880088000000000065
:104BB00000000000800080008000800080008000F5
:104BC00080008000000000000000000010001000C5
:104BD0001000100010009000900060000000000025
:104BE0000000000088009000A000E000A0009000FD
:104BF000900088000000000000000000800080009D
:104C000080008000800080008000F0000000000034
:104C1000000000008200C600C600AA00AA00AA0088
:104C2000AA00920000000000000000008400C40000
:104C3000A400A400940094008C00840000000000F4
:104C400000000000300048008400840084008400DC
:104C5000480030000000000000000000F000880064
:104C600088008800F00080008000800000000000C4
:104C700000000000300048008400840084008400AC
:104C800058003400040000000000000078004400D8
:104C9000440078005000480044004200000000003A
:104CA000000000007000880080007000080088008C
:104CB000880070000000000000000000F8002000E4
:104CC0002000200020002000200020000000000024
:104CD00000000000840084008400840084008400BC
:104CE000480030000000000000000000880088003C
:104CF0005000500050005000500020000000000004
:104D0000000000009200AA00AA00AA00AA00AA00BF
:104D1000AA004400000000000000000084004800D9
:104D200048003000300048004800840000000000C7
:104D300000000000880050005000200020002000EB
:104D4000200020000000000000000000F800080023
:104D500010002000200040008000F800000000004B
:104D600000000000C0008000800080008000800003
:104D700080008000800000000000000080008000B3
:104D800040004000400040002000200000000000E3
:104D900000000000C0004000400040004000400013
:104DA0004000400040000000000000004000A00063
:104DB000A000A000000000000000000000000000B3
:104DC00000000000000000000000000000000000E3
:104DD00000000000F800000000000000800040001B
:104DE00000000000000000000000000000000000C3
:104DF0000000000000000000E000100070009000C3
:104E000090007000000000000000000080008000A2
:104E1000A000D00090009000D000A0000000000092
:104E20000000000000000000600090008000800092
:104E30009000600000000000000000001000100062
:104E40005000B00090009000B00050000000000042
:104E5000000000000000000060009000F0008000F2
:104E6000900060000000000000000000C000800012
:104E7000C0008000800080008000800000000000F2
:104E800000000000000000005000B0009000900002
:104E9000B000500010000000000000008000800002
:104EA000A000D00090009000900090000000000052
:104EB0000000000080000000800080008000800072
:104EC0008000800000000000000000008000000062
:104ED0008000800080008000800080008000000052
:104EE00000000000800080009000A000C000A00032
:104EF0009000900000000000000000008000800092
:104F000080008000800080008000800000000000A1
:104F10000000000000000000A600DA0092009200ED
:104F2000920092000000000000000000000000005D
:104F3000A000D000900090009000900000000000C1
:104F40000000000000000000600090009000900051
:104F50009000600000000000000000000000000061
:104F6000A000D00090009000D000A00080000000C1
:104F700000000000000000005000B0009000900011
:104F8000B000500010000000000000000000000011
:104F9000A000C000800080008000800000000000B1
:104FA0000000000000000000E00090004000200031
:104FB0009000600000000000000000008000800001
:104FC000C0008000800080008000C0000000000061
:104FD0000000000000000000900090009000900091
:104FE000B0005000000000000000000000000000C1
:104FF0008800880050005000500020000000000091
:1050000000000000000000009200AA00AA00AA0010
:10501000AA004400000000000000000000000000A2
:105020008800500020002000500088000000000090
:1050300000000000000000008800500050005000F8
:105040002000200020000000000000000000000000
:10505000F0001000200040008000F0000000000080
:1050600000000000C0008000800080000000800080
:1050700080008000800000000000000080008000B0
:1050800080008000800080008000800080000000A0
:1050900000000000C0004000400040002000400030
:1050A0004000400040000000000000000000000040
:1050B0000000E800B0000000000000000000000058
:1050C000000000000000E000A000A000A000A00080
:1050D000A000E00000000000000000000000000050
:1050E0000000000000004000400040004000400080
:1050F000400000004000A000A000A0000000000050
:10510000000000000000000024002400FE00480011
:10511000FC004800480038005400500038001400DB
:105120001400540038004400A800A80050001400E7
:105130001A002A0024001000280028001000740023
:105140004C004C0030001000100010000000000067
:105150000000000000000800100010001000100007
:1051600010001000080010000800080008000800E7
:1051700008000800100000000000240018003C0097
:1051800018002400000000000000100010007C0047
:1051900010001000000000000000000000000000EF
:1051A00008000800100000000000000000003C00A3
:1051B00000000000000000000000000000000000EF
:1051C0000000180018000800080008001000100077
:1051D00020002000200018002400240024002400C7
:1051E0002400240018000800180028000800080007
:1051F000080008000800380044000000040008000F
:10520000100020007C001800240004001800040096
:1052100004002400180004000C00140024004400C2
:105220007E00040004003C00200020003800040040
:105230000400240018001800240020003800240076
:105240002400240018003C000400080008000800A6
:105250001000100010001800240024001800240082
:1052600024002400180018002400240024001C003E
:1052700004002400180000000000100000000000DE
:105280001000000000000000000008000000000006
:1052900008001000000000000000040018002000BA
:1052A0001800040000000000000000003C000000A6
:1052B0003C00000000000000000020001800040076
:1052C000180020000000180024000400080010004E
:1052D0001000000010003C0042009900A500A5004D
:1052E0009D004200380038004400440044007C0027
:1052F0004400440044007800440044007800440026
:105300004400440078001C0022004200400040009D
:10531000420022001C007000480044004400440089
:105320004400480070007C00400040007C004000C9
:10533000400040007C003C0020002000380020009D
:105340002000200020001C002200420040004E00EF
:10535000420022001C004400440044007C00440041
:105360004400440044001000100010001000100021
:1053700010001000100004000400040004000400E9
:105380002400240018004400480050007000500021
:105390004800480044002000200020002000200099
:1053A000200020003C008200C600C600AA00AA001F
:1053B000AA00AA00920042006200520052004A0075
:1053C0004A00460042001800240042004200420009
:1053D0004200240018007800440044004400780093
:1053E00040004000400018002400420042004200FB
:1053F00042002C001A00780044004400780050005D
:1054000048004400420038004400400038000400D6
:105410004400440038007C00100010001000100010
:105420001000100010004200420042004200420002
:1054300042002400180044004400280028002800EE
:105440002800280010009200AA00AA00AA00AA00C2
:10545000AA00AA00440042002400240018001800FA
:1054600024002400420044002800280010001000FE
:105470001000100010007C00040008001000100054
:10548000200040007C001C001000100010001000E4
:10549000100010001C001000100008000800080098
:1054A0000800040004001C000400040004000400C0
:1054B000040004001C00100028004400000000004C
:1054C00000000000000000000000000000000000DC
:1054D000000000000000200010001000000000008C
:1054E00000000000000000000000180004001C0084
:1054F000240024001C002000200028003400240088
:1055000024003400280000000000180024002000BF
:105510002000240018000400040014002C002400C3
:1055200024002C00140000000000180024003C009F
:1055300020002400180000001800100010001800BF
:1055400010001000100000001800240024001800B3
:10555000040024001800200020002800340024004B
:10556000240024002400100000001000100010008F
:1055700010001000100008000000080008000800DB
:10558000080028001000200020002400280030001F
:10559000280024002400100010001000100010004B
:1055A00010001000100000000000A600DA009200B9
:1055B00092009200920000000000280034002400B5
:1055C000240024002400000000001800240024000F
:1055D00024002400180000002800340024003800B3
:1055E000200020002000000014002C0024001C00DB
:1055F000040004000400000000002C003000200023
:1056000020002000200000000000180024001000EE
:1056100008002400180000001000380010001000DE
:1056200010001000180000000000240024002400D6
:1056300024002C0014000000000044004400280056
:10564000280028001000000000009200AA00AA0014
:10565000AA00AA0044000000000044002800100036
:105660001000280044000000280028002800100036
:10567000100010001000000000003C0004000800B2
:10568000100020003C000000080010001000200066
:105690001000100008001000100010001000100092
:1056A00010001000100000001000080008000400A6
:1056B00008000800100000000000000060009200D8
:1056C0000C0000000000FF00FF00FF00FF00FF00D3
:1056D000FF00FF00FF0004000008000000000000C1
:1056E0000002000100001000085700080000002020
:1056F00078000000E80100088057000878000020CA
:10570000C806000004020008000000000018024063
:10571000001802400000024000000000062D0008B2
:1057200010001800D63E00080C000C00D6470008F8
:1057300008000C00D6500008080008000000000017
:105740000000FFFF000000D000000000000000008B
:105750000000000000000000000000000000000049
:1057600000000000000000001F1C1F1E1F1E1F1F46
:105770001E1F1E1F1F1D1F1E1F1E1F1F1E1F1E1F41
:04000005080001AD41
:00000001FF
